:020000040000fa
:080000000002040000000000f2
:020000040000fa
:100008009a0200009a0200009a0200009a02000078
:100018009a0200009a0200009a0200009a02000068
:100028009a0200009a0200009a0200009a02000058
:100038009a0200009a0200009a0200009a02000048
:10004800dc0200009a0200009a0200009a020000f6
:100058009a0200009a0200009a0200009a02000028
:100068009a0200009a0200009a020000fe020000b4
:100078009a0200009a0200009a0200009a02000008
:100088009a0200009a0200009a0200009a020000f8
:100098009a0200009a0200009a0200009a020000e8
:1000a8009a0200009a0200009a0200009a020000d8
:1000b8009a0200009a0200009a0200009a020000c8
:1000c8009a0200009a0200009a0200009a020000b8
:1000d8009a0200009a0200009a0200009a020000a8
:1000e8009a0200009a0200009a0200009a02000098
:1000f8009a0200009a0200009a0200009a02000088
:100108009a0200009a0200009a0200009a02000077
:100118009a0200009a0200009a0200009a02000067
:100128009a0200009a0200009a0200009a02000057
:100138009a0200009a0200009a0200009a02000047
:100148009a0200009a0200009a0200009a02000037
:100158009a0200009a0200009a0200009a02000027
:100168009a0200009a0200009a0200009a02000017
:100178009a0200009a0200009a0200009a02000007
:100188009a0200009a0200009a0200009a020000f7
:100198009a0200009a0200009a0200009a020000e7
:1001a8009a0200009a0200009a0200009a020000d7
:1001b8009a0200009a0200009a0200009a020000c7
:1001c8009a0200009a0200009a0200009a020000b7
:1001d8009a0200009a0200009a0200009a020000a7
:1001e8009a0200009a0200009a0200009a02000097
:0801f8009a0200009a020000c7
:020000040000fa
:100208009a0200009a0200009a0200009a02000076
:100218009a0200009a0200009a0200009a02000066
:100228009a0200009a0200009a0200009a02000056
:100238009a0200009a0200009a0200009a02000046
:10024800dc0200009a0200009a0200009a020000f4
:100258009a0200009a0200009a0200009a02000026
:100268009a0200009a0200009a020000fe020000b2
:100278009a0200009a0200009a0200009a02000006
:100288009a0200009a0200009a0200009a020000f6
:100298009a0200009a0200009a0200009a020000e6
:1002a8009a0200009a0200009a0200009a020000d6
:1002b8009a0200009a0200009a0200009a020000c6
:1002c8009a0200009a0200009a0200009a020000b6
:1002d8009a0200009a0200009a0200009a020000a6
:1002e8009a0200009a0200009a0200009a02000096
:1002f8009a0200009a0200009a0200009a02000086
:100308009a0200009a0200009a0200009a02000075
:100318009a0200009a0200009a0200009a02000065
:100328009a0200009a0200009a0200009a02000055
:100338009a0200009a0200009a0200009a02000045
:100348009a0200009a0200009a0200009a02000035
:100358009a0200009a0200009a0200009a02000025
:100368009a0200009a0200009a0200009a02000015
:100378009a0200009a0200009a0200009a02000005
:100388009a0200009a0200009a0200009a020000f5
:100398009a0200009a0200009a0200009a020000e5
:1003a8009a0200009a0200009a0200009a020000d5
:1003b8009a0200009a0200009a0200009a020000c5
:1003c8009a0200009a0200009a0200009a020000b5
:1003d8009a0200009a0200009a0200009a020000a5
:1003e8009a0200009a0200009a0200009a02000095
:0803f8009a0200009a020000c5
:020000040000fa
:100400004f8020000e7f22000e01880000000000b7
:10041000000020000000e000020032000001200087
:10042000200288000c000700e045200001002000a9
:1004300011000700000020000000e0000200320070
:1004400000000200000000009e0202000000000008
:100450000040da000000fe004440a9000000200037
:100460000000e0000300320000002000a00188002e
:100470004440a80000000600910188008000780038
:100480000000eb0015003700e280400032a0b4000d
:100490009101ba00e280400032a0b4009102ba009b
:1004a000e280400032a0b4000002eb00472bde00e7
:1004b000f507b200602ce10004003a000059eb009f
:1004c0008301e900fdff3e00040037006128e100e0
:1004d000010032000082eb00040007001101ba00a5
:1004e0000200e000e8ff3a00000006003159ba00bf
:1004f0008301e9000c0032002159ba008301e900b0
:10050000080032000400e00003003a00e2804000ee
:1005100032a0b400f5ff370011d9ba008301e90019
:10052000faff3a008100e800e180400032a0b40008
:0c053000000006000040da000000fe00a1
:020000040000fa
:10053c000000fa0090000700c400070099000700b3
:10054c00010037000000000004408000050020007e
:10055c003600200007002000860f5200878f5a00bb
:10056c00f8ff3e000460010003003700050037006f
:10057c0007003700090037004000200090000700fa
:10058c0009003700500020008d00070006003700de
:10059c00600020008a000700030037007000200074
:1005ac008700070000000000e7ff3700849fbe00b3
:1005bc003400f80004002000a40188000000fa00b8
:1005cc008500a900551680000402200004826200f8
:1005dc00e00f520002003a00140020001440880082
:1005ec000080fa003400f9004f02be000040060003
:1005fc00849fbe003400f80004002000a401880091
:10060c000000fa008660a900551680000402200044
:10061c0004826200e00f520001003a0011e1a800d0
:10062c00551680000402200004826200e00f520084
:10063c001d00320014408000e10f52001a003200fd
:10064c0004408000e00f520003003a001400200028
:10065c00044088001100370004408000e10f520074
:10066c0003003a0024002000044088000b003700ef
:10067c0004408000e20f520003003a0034002000d6
:10068c00044088000500370004408000e30f52004e
:10069c0002003a000002eb000440880011e1a900be
:1006ac000002eb003408880055168000040220007c
:1006bc0004826200e00f52002b00320014408000d4
:1006cc00e10f520028003a0004408000e00f520075
:1006dc0007003a0034002000044088000002eb00c0
:1006ec00340888000002eb00144088001d0037001d
:1006fc0004408000e10f520007003a000002eb00ba
:10070c00044088000002eb00340888000002eb0073
:10071c00144088001300370004408000e20f5200a0
:10072c0007003a0014002000044088000002eb008f
:10073c00340888000002eb001440880009003700e0
:10074c0004408000e30f520006003a002400200011
:10075c00044088000002eb00340888000002eb0023
:10076c001440880011e1a9000080fa003400f9005f
:10077c004f02be00004006000000fa00c9e2a900ca
:10078c00c9c2a900c9a2a900c982a900cde2a800ca
:10079c00cdc2a800cda2a800cd82a8000080fa008e
:1007ac00000006000000fa00c8a2a8006360a800c0
:1007bc008660a9009660a8000080fa000000060080
:1007cc000200fa00000f78001e027800e40f5200bd
:1007dc0005003a00cde2a900cdc2a800cda2a80028
:1007ec00cd82a800170037001e027800e50f5200da
:1007fc0005003a00cde2a800cdc2a900cda2a80008
:10080c00cd82a8000f0037001e027800e60f5200c0
:10081c0005003a00cde2a800cdc2a800cda2a900e7
:10082c00cd82a800070037001e027800e70f5200a7
:10083c0004003a00cde2a800cdc2a800cda2a800c9
:10084c00cd82a9000080fa00000006000400fa0026
:10085c00f41f2c0015002000048fbe001e02be00e9
:10086c0040aade00cfa2de000402780074088800e3
:10087c001e02be00c022dd000400200040aade00e3
:10088c00cfa2de0004027800640888001061a80082
:10089c00840880000440a0000450a0008408880054
:1008ac009500a8008500a9000080fa000000060051
:020000040000fa
:1008bc000008000004000000000000000000000020
:020000040000fa
:020000040001f9
:0457f800ad7b000085
:020000040000fa
:020000040001f9
:0457fc003f3f00002b
:00000001FF
